{
  "contractName": "SimpleStorage",
  "abi": [
    {
      "inputs": [
        {
          "internalType": "string",
          "name": "_hash",
          "type": "string"
        },
        {
          "internalType": "string",
          "name": "_phash",
          "type": "string"
        },
        {
          "internalType": "string",
          "name": "_title",
          "type": "string"
        },
        {
          "internalType": "uint256",
          "name": "_price",
          "type": "uint256"
        }
      ],
      "name": "set",
      "outputs": [],
      "stateMutability": "nonpayable",
      "type": "function"
    },
    {
      "inputs": [],
      "name": "get",
      "outputs": [
        {
          "components": [
            {
              "internalType": "address",
              "name": "uploader",
              "type": "address"
            },
            {
              "internalType": "string",
              "name": "hash",
              "type": "string"
            },
            {
              "internalType": "string",
              "name": "phash",
              "type": "string"
            },
            {
              "internalType": "string",
              "name": "title",
              "type": "string"
            },
            {
              "internalType": "uint256",
              "name": "price",
              "type": "uint256"
            },
            {
              "internalType": "uint256",
              "name": "timestamp",
              "type": "uint256"
            }
          ],
          "internalType": "struct SimpleStorage.Image[]",
          "name": "",
          "type": "tuple[]"
        }
      ],
      "stateMutability": "view",
      "type": "function",
      "constant": true
    },
    {
      "inputs": [],
      "name": "getALL",
      "outputs": [
        {
          "components": [
            {
              "internalType": "address",
              "name": "uploader",
              "type": "address"
            },
            {
              "internalType": "string",
              "name": "hash",
              "type": "string"
            },
            {
              "internalType": "string",
              "name": "phash",
              "type": "string"
            },
            {
              "internalType": "string",
              "name": "title",
              "type": "string"
            },
            {
              "internalType": "uint256",
              "name": "price",
              "type": "uint256"
            },
            {
              "internalType": "uint256",
              "name": "timestamp",
              "type": "uint256"
            }
          ],
          "internalType": "struct SimpleStorage.Image[]",
          "name": "",
          "type": "tuple[]"
        }
      ],
      "stateMutability": "view",
      "type": "function",
      "constant": true
    },
    {
      "inputs": [
        {
          "internalType": "uint256",
          "name": "_id",
          "type": "uint256"
        }
      ],
      "name": "buyImage",
      "outputs": [],
      "stateMutability": "payable",
      "type": "function",
      "payable": true
    },
    {
      "inputs": [],
      "name": "getBoughtImages",
      "outputs": [
        {
          "components": [
            {
              "internalType": "address",
              "name": "uploader",
              "type": "address"
            },
            {
              "internalType": "string",
              "name": "hash",
              "type": "string"
            },
            {
              "internalType": "string",
              "name": "phash",
              "type": "string"
            },
            {
              "internalType": "string",
              "name": "title",
              "type": "string"
            },
            {
              "internalType": "uint256",
              "name": "price",
              "type": "uint256"
            },
            {
              "internalType": "uint256",
              "name": "timestamp",
              "type": "uint256"
            }
          ],
          "internalType": "struct SimpleStorage.Image[]",
          "name": "",
          "type": "tuple[]"
        }
      ],
      "stateMutability": "view",
      "type": "function",
      "constant": true
    }
  ],
  "bytecode": "0x6080604052600060075534801561001557600080fd5b506114fc806100256000396000f3fe60806040526004361061004a5760003560e01c806303e6af2e1461004f5780631564d7b31461006b5780636d4ce63c1461009657806382b69fca146100c1578063c8b71e0b146100ea575b600080fd5b610069600480360381019061006491906110ab565b610115565b005b34801561007757600080fd5b50610080610348565b60405161008d919061124f565b60405180910390f35b3480156100a257600080fd5b506100ab610604565b6040516100b8919061124f565b60405180910390f35b3480156100cd57600080fd5b506100e860048036038101906100e39190610ff0565b6108c0565b005b3480156100f657600080fd5b506100ff610bbc565b60405161010c919061124f565b60405180910390f35b60006008828154811061012b5761012a61142c565b5b906000526020600020906006020160000160009054906101000a900473ffffffffffffffffffffffffffffffffffffffff1690506000600883815481106101755761017461142c565b5b906000526020600020906006020160040154905080341461019557600080fd5b8173ffffffffffffffffffffffffffffffffffffffff166108fc829081150290604051600060405180830381858888f193505050501580156101db573d6000803e3d6000fd5b50600a60003373ffffffffffffffffffffffffffffffffffffffff1673ffffffffffffffffffffffffffffffffffffffff1681526020019081526020016000206008848154811061022f5761022e61142c565b5b906000526020600020906006020190806001815401808255809150506001900390600052602060002090600602016000909190919091506000820160009054906101000a900473ffffffffffffffffffffffffffffffffffffffff168160000160006101000a81548173ffffffffffffffffffffffffffffffffffffffff021916908373ffffffffffffffffffffffffffffffffffffffff16021790555060018201816001019080546102e19061139a565b6102ec929190610e3b565b5060028201816002019080546103019061139a565b61030c929190610e3b565b5060038201816003019080546103219061139a565b61032c929190610e3b565b5060048201548160040155600582015481600501555050505050565b6060600a60003373ffffffffffffffffffffffffffffffffffffffff1673ffffffffffffffffffffffffffffffffffffffff168152602001908152602001600020805480602002602001604051908101604052809291908181526020016000905b828210156105fb57838290600052602060002090600602016040518060c00160405290816000820160009054906101000a900473ffffffffffffffffffffffffffffffffffffffff1673ffffffffffffffffffffffffffffffffffffffff1673ffffffffffffffffffffffffffffffffffffffff1681526020016001820180546104329061139a565b80601f016020809104026020016040519081016040528092919081815260200182805461045e9061139a565b80156104ab5780601f10610480576101008083540402835291602001916104ab565b820191906000526020600020905b81548152906001019060200180831161048e57829003601f168201915b505050505081526020016002820180546104c49061139a565b80601f01602080910402602001604051908101604052809291908181526020018280546104f09061139a565b801561053d5780601f106105125761010080835404028352916020019161053d565b820191906000526020600020905b81548152906001019060200180831161052057829003601f168201915b505050505081526020016003820180546105569061139a565b80601f01602080910402602001604051908101604052809291908181526020018280546105829061139a565b80156105cf5780601f106105a4576101008083540402835291602001916105cf565b820191906000526020600020905b8154815290600101906020018083116105b257829003601f168201915b5050505050815260200160048201548152602001600582015481525050815260200190600101906103a9565b50505050905090565b6060600960003373ffffffffffffffffffffffffffffffffffffffff1673ffffffffffffffffffffffffffffffffffffffff168152602001908152602001600020805480602002602001604051908101604052809291908181526020016000905b828210156108b757838290600052602060002090600602016040518060c00160405290816000820160009054906101000a900473ffffffffffffffffffffffffffffffffffffffff1673ffffffffffffffffffffffffffffffffffffffff1673ffffffffffffffffffffffffffffffffffffffff1681526020016001820180546106ee9061139a565b80601f016020809104026020016040519081016040528092919081815260200182805461071a9061139a565b80156107675780601f1061073c57610100808354040283529160200191610767565b820191906000526020600020905b81548152906001019060200180831161074a57829003601f168201915b505050505081526020016002820180546107809061139a565b80601f01602080910402602001604051908101604052809291908181526020018280546107ac9061139a565b80156107f95780601f106107ce576101008083540402835291602001916107f9565b820191906000526020600020905b8154815290600101906020018083116107dc57829003601f168201915b505050505081526020016003820180546108129061139a565b80601f016020809104026020016040519081016040528092919081815260200182805461083e9061139a565b801561088b5780601f106108605761010080835404028352916020019161088b565b820191906000526020600020905b81548152906001019060200180831161086e57829003601f168201915b505050505081526020016004820154815260200160058201548152505081526020019060010190610665565b50505050905090565b33600160000160006101000a81548173ffffffffffffffffffffffffffffffffffffffff021916908373ffffffffffffffffffffffffffffffffffffffff1602179055508360018001908051906020019061091c929190610ec8565b508260016002019080519060200190610936929190610ec8565b508160016003019080519060200190610950929190610ec8565b5080600160040181905550426001600501819055506008600190806001815401808255809150506001900390600052602060002090600602016000909190919091506000820160009054906101000a900473ffffffffffffffffffffffffffffffffffffffff168160000160006101000a81548173ffffffffffffffffffffffffffffffffffffffff021916908373ffffffffffffffffffffffffffffffffffffffff1602179055506001820181600101908054610a0d9061139a565b610a18929190610e3b565b506002820181600201908054610a2d9061139a565b610a38929190610e3b565b506003820181600301908054610a4d9061139a565b610a58929190610e3b565b5060048201548160040155600582015481600501555050600960003373ffffffffffffffffffffffffffffffffffffffff1673ffffffffffffffffffffffffffffffffffffffff168152602001908152602001600020600190806001815401808255809150506001900390600052602060002090600602016000909190919091506000820160009054906101000a900473ffffffffffffffffffffffffffffffffffffffff168160000160006101000a81548173ffffffffffffffffffffffffffffffffffffffff021916908373ffffffffffffffffffffffffffffffffffffffff1602179055506001820181600101908054610b549061139a565b610b5f929190610e3b565b506002820181600201908054610b749061139a565b610b7f929190610e3b565b506003820181600301908054610b949061139a565b610b9f929190610e3b565b506004820154816004015560058201548160050155505050505050565b60606008805480602002602001604051908101604052809291908181526020016000905b82821015610e3257838290600052602060002090600602016040518060c00160405290816000820160009054906101000a900473ffffffffffffffffffffffffffffffffffffffff1673ffffffffffffffffffffffffffffffffffffffff1673ffffffffffffffffffffffffffffffffffffffff168152602001600182018054610c699061139a565b80601f0160208091040260200160405190810160405280929190818152602001828054610c959061139a565b8015610ce25780601f10610cb757610100808354040283529160200191610ce2565b820191906000526020600020905b815481529060010190602001808311610cc557829003601f168201915b50505050508152602001600282018054610cfb9061139a565b80601f0160208091040260200160405190810160405280929190818152602001828054610d279061139a565b8015610d745780601f10610d4957610100808354040283529160200191610d74565b820191906000526020600020905b815481529060010190602001808311610d5757829003601f168201915b50505050508152602001600382018054610d8d9061139a565b80601f0160208091040260200160405190810160405280929190818152602001828054610db99061139a565b8015610e065780601f10610ddb57610100808354040283529160200191610e06565b820191906000526020600020905b815481529060010190602001808311610de957829003601f168201915b505050505081526020016004820154815260200160058201548152505081526020019060010190610be0565b50505050905090565b828054610e479061139a565b90600052602060002090601f016020900481019282610e695760008555610eb7565b82601f10610e7a5780548555610eb7565b82800160010185558215610eb757600052602060002091601f016020900482015b82811115610eb6578254825591600101919060010190610e9b565b5b509050610ec49190610f4e565b5090565b828054610ed49061139a565b90600052602060002090601f016020900481019282610ef65760008555610f3d565b82601f10610f0f57805160ff1916838001178555610f3d565b82800160010185558215610f3d579182015b82811115610f3c578251825591602001919060010190610f21565b5b509050610f4a9190610f4e565b5090565b5b80821115610f67576000816000905550600101610f4f565b5090565b6000610f7e610f7984611296565b611271565b905082815260208101848484011115610f9a57610f9961148f565b5b610fa5848285611358565b509392505050565b600082601f830112610fc257610fc161148a565b5b8135610fd2848260208601610f6b565b91505092915050565b600081359050610fea816114af565b92915050565b6000806000806080858703121561100a57611009611499565b5b600085013567ffffffffffffffff81111561102857611027611494565b5b61103487828801610fad565b945050602085013567ffffffffffffffff81111561105557611054611494565b5b61106187828801610fad565b935050604085013567ffffffffffffffff81111561108257611081611494565b5b61108e87828801610fad565b925050606061109f87828801610fdb565b91505092959194509250565b6000602082840312156110c1576110c0611499565b5b60006110cf84828501610fdb565b91505092915050565b60006110e483836111a9565b905092915050565b6110f58161131c565b82525050565b6000611106826112d7565b61111081856112fa565b935083602082028501611122856112c7565b8060005b8581101561115e578484038952815161113f85826110d8565b945061114a836112ed565b925060208a01995050600181019050611126565b50829750879550505050505092915050565b600061117b826112e2565b611185818561130b565b9350611195818560208601611367565b61119e8161149e565b840191505092915050565b600060c0830160008301516111c160008601826110ec565b50602083015184820360208601526111d98282611170565b915050604083015184820360408601526111f38282611170565b9150506060830151848203606086015261120d8282611170565b91505060808301516112226080860182611240565b5060a083015161123560a0860182611240565b508091505092915050565b6112498161134e565b82525050565b6000602082019050818103600083015261126981846110fb565b905092915050565b600061127b61128c565b905061128782826113cc565b919050565b6000604051905090565b600067ffffffffffffffff8211156112b1576112b061145b565b5b6112ba8261149e565b9050602081019050919050565b6000819050602082019050919050565b600081519050919050565b600081519050919050565b6000602082019050919050565b600082825260208201905092915050565b600082825260208201905092915050565b60006113278261132e565b9050919050565b600073ffffffffffffffffffffffffffffffffffffffff82169050919050565b6000819050919050565b82818337600083830152505050565b60005b8381101561138557808201518184015260208101905061136a565b83811115611394576000848401525b50505050565b600060028204905060018216806113b257607f821691505b602082108114156113c6576113c56113fd565b5b50919050565b6113d58261149e565b810181811067ffffffffffffffff821117156113f4576113f361145b565b5b80604052505050565b7f4e487b7100000000000000000000000000000000000000000000000000000000600052602260045260246000fd5b7f4e487b7100000000000000000000000000000000000000000000000000000000600052603260045260246000fd5b7f4e487b7100000000000000000000000000000000000000000000000000000000600052604160045260246000fd5b600080fd5b600080fd5b600080fd5b600080fd5b6000601f19601f8301169050919050565b6114b88161134e565b81146114c357600080fd5b5056fea2646970667358221220f3cb4f4dbecb1d6bbed4a8a5fca5592394909b5b8fe60b5c2b4872b3953a2ac764736f6c63430008070033",
  "immutableReferences": {},
  "source": "// SPDX-License-Identifier: MIT\r\npragma solidity >=0.4.21 <8.10.0;\r\n\r\ncontract SimpleStorage {\r\n    uint256 storedData;\r\n    struct Image {\r\n        address uploader;\r\n        string hash;\r\n        string phash;\r\n        string title;\r\n        uint256 price;\r\n        uint256 timestamp;\r\n    }\r\n\r\n    Image upload;\r\n    uint256 key = 0;\r\n    Image[] imageUploads;\r\n    mapping(address => Image[]) Useruploaded;\r\n    mapping(address => Image[]) boughtImages;\r\n\r\n    function set(\r\n        string memory _hash,\r\n        string memory _phash,\r\n        string memory _title,\r\n        uint256 _price\r\n    ) public {\r\n        upload.uploader = msg.sender;\r\n        upload.hash = _hash;\r\n        upload.phash = _phash;\r\n        upload.title = _title;\r\n        upload.price = _price;\r\n        upload.timestamp = block.timestamp;\r\n        imageUploads.push(upload);\r\n        Useruploaded[msg.sender].push(upload);\r\n    }\r\n\r\n    function get() public view returns (Image[] memory) {\r\n        return Useruploaded[msg.sender];\r\n    }\r\n\r\n    function getALL() public view returns (Image[] memory) {\r\n        return imageUploads;\r\n    }\r\n\r\n    function buyImage(uint256 _id) public payable {\r\n        address payable seller = payable(imageUploads[_id].uploader);\r\n        uint256 amount = imageUploads[_id].price;\r\n        require(msg.value == amount);\r\n        seller.transfer(amount);\r\n        boughtImages[msg.sender].push(imageUploads[_id]);\r\n    }\r\n\r\n    function getBoughtImages() public view returns (Image[] memory) {\r\n        return boughtImages[msg.sender];\r\n    }\r\n}\r\n",
  "sourcePath": "C:\\Users\\jobin\\OneDrive\\Documents\\My Project\\vista\\contracts\\SimpleStorage.sol",
  "compiler": {
    "name": "solc",
    "version": "0.8.7+commit.e28d00a7.Emscripten.clang"
  },
  "schemaVersion": "3.4.6",
  "updatedAt": "2022-05-29T07:10:51.114Z",
  "networkType": "ethereum",
  "devdoc": {
    "kind": "dev",
    "methods": {},
    "version": 1
  },
  "userdoc": {
    "kind": "user",
    "methods": {},
    "version": 1
  }
}