{
  "contractName": "SimpleStorage",
  "abi": [
    {
      "constant": false,
      "inputs": [
        {
          "internalType": "string",
          "name": "_hash",
          "type": "string"
        },
        {
          "internalType": "string",
          "name": "_title",
          "type": "string"
        },
        {
          "internalType": "uint256",
          "name": "_price",
          "type": "uint256"
        }
      ],
      "name": "set",
      "outputs": [],
      "payable": false,
      "stateMutability": "nonpayable",
      "type": "function"
    },
    {
      "constant": true,
      "inputs": [],
      "name": "get",
      "outputs": [
        {
          "components": [
            {
              "internalType": "string",
              "name": "hash",
              "type": "string"
            },
            {
              "internalType": "string",
              "name": "title",
              "type": "string"
            },
            {
              "internalType": "uint256",
              "name": "price",
              "type": "uint256"
            },
            {
              "internalType": "uint256",
              "name": "timestamp",
              "type": "uint256"
            }
          ],
          "internalType": "struct SimpleStorage.Image[]",
          "name": "",
          "type": "tuple[]"
        }
      ],
      "payable": false,
      "stateMutability": "view",
      "type": "function"
    }
  ],
  "bytecode": "0x608060405234801561001057600080fd5b5061085e806100206000396000f3fe608060405234801561001057600080fd5b50600436106100365760003560e01c806347c816991461003b5780636d4ce63c14610057575b600080fd5b6100556004803603610050919081019061051d565b610075565b005b61005f610194565b60405161006c91906106d7565b60405180910390f35b826001600001908051906020019061008e929190610388565b50816001800190805190602001906100a7929190610388565b508060016002018190555042600160030181905550600560003373ffffffffffffffffffffffffffffffffffffffff1673ffffffffffffffffffffffffffffffffffffffff1681526020019081526020016000206001908060018154018082558091505090600182039060005260206000209060040201600090919290919091506000820181600001908054600181600116156101000203166002900461014f929190610408565b5060018201816001019080546001816001161561010002031660029004610177929190610408565b506002820154816002015560038201548160030155505050505050565b6060600560003373ffffffffffffffffffffffffffffffffffffffff1673ffffffffffffffffffffffffffffffffffffffff168152602001908152602001600020805480602002602001604051908101604052809291908181526020016000905b8282101561037f5783829060005260206000209060040201604051806080016040529081600082018054600181600116156101000203166002900480601f0160208091040260200160405190810160405280929190818152602001828054600181600116156101000203166002900480156102b15780601f10610286576101008083540402835291602001916102b1565b820191906000526020600020905b81548152906001019060200180831161029457829003601f168201915b50505050508152602001600182018054600181600116156101000203166002900480601f0160208091040260200160405190810160405280929190818152602001828054600181600116156101000203166002900480156103535780601f1061032857610100808354040283529160200191610353565b820191906000526020600020905b81548152906001019060200180831161033657829003601f168201915b5050505050815260200160028201548152602001600382015481525050815260200190600101906101f5565b50505050905090565b828054600181600116156101000203166002900490600052602060002090601f016020900481019282601f106103c957805160ff19168380011785556103f7565b828001600101855582156103f7579182015b828111156103f65782518255916020019190600101906103db565b5b509050610404919061048f565b5090565b828054600181600116156101000203166002900490600052602060002090601f016020900481019282601f10610441578054855561047e565b8280016001018555821561047e57600052602060002091601f016020900482015b8281111561047d578254825591600101919060010190610462565b5b50905061048b919061048f565b5090565b6104b191905b808211156104ad576000816000905550600101610495565b5090565b90565b600082601f8301126104c557600080fd5b81356104d86104d382610726565b6106f9565b915080825260208301602083018583830111156104f457600080fd5b6104ff8382846107b1565b50505092915050565b60008135905061051781610804565b92915050565b60008060006060848603121561053257600080fd5b600084013567ffffffffffffffff81111561054c57600080fd5b610558868287016104b4565b935050602084013567ffffffffffffffff81111561057557600080fd5b610581868287016104b4565b925050604061059286828701610508565b9150509250925092565b60006105a8838361065e565b905092915050565b60006105bb82610762565b6105c58185610785565b9350836020820285016105d785610752565b8060005b8581101561061357848403895281516105f4858261059c565b94506105ff83610778565b925060208a019950506001810190506105db565b50829750879550505050505092915050565b60006106308261076d565b61063a8185610796565b935061064a8185602086016107c0565b610653816107f3565b840191505092915050565b6000608083016000830151848203600086015261067b8282610625565b915050602083015184820360208601526106958282610625565b91505060408301516106aa60408601826106c8565b5060608301516106bd60608601826106c8565b508091505092915050565b6106d1816107a7565b82525050565b600060208201905081810360008301526106f181846105b0565b905092915050565b6000604051905081810181811067ffffffffffffffff8211171561071c57600080fd5b8060405250919050565b600067ffffffffffffffff82111561073d57600080fd5b601f19601f8301169050602081019050919050565b6000819050602082019050919050565b600081519050919050565b600081519050919050565b6000602082019050919050565b600082825260208201905092915050565b600082825260208201905092915050565b6000819050919050565b82818337600083830152505050565b60005b838110156107de5780820151818401526020810190506107c3565b838111156107ed576000848401525b50505050565b6000601f19601f8301169050919050565b61080d816107a7565b811461081857600080fd5b5056fea365627a7a72315820d2a61b904168c41f52acd44c68d492d2d52b7c44c4d0e7f852e564a6c57df9026c6578706572696d656e74616cf564736f6c63430005100040",
  "source": "// SPDX-License-Identifier: MIT\r\npragma solidity >=0.4.21 <8.10.0;\r\npragma experimental ABIEncoderV2;\r\n\r\ncontract SimpleStorage {\r\n    uint256 storedData;\r\n    struct Image {\r\n        string hash;\r\n        string title;\r\n        uint256 price;\r\n        uint256 timestamp;\r\n    }\r\n\r\n    Image upload;\r\n\r\n    mapping(address => Image[]) imageUploads;\r\n\r\n    function set(\r\n        string memory _hash,\r\n        string memory _title,\r\n        uint256 _price\r\n    ) public {\r\n        upload.hash = _hash;\r\n        upload.title = _title;\r\n        upload.price = _price;\r\n        upload.timestamp = block.timestamp;\r\n        imageUploads[msg.sender].push(upload);\r\n    }\r\n\r\n    function get() public view returns (Image[] memory) {\r\n        return imageUploads[msg.sender];\r\n    }\r\n}\r\n",
  "sourcePath": "C:\\Users\\emilg\\vista2\\contracts\\SimpleStorage.sol",
  "compiler": {
    "name": "solc",
    "version": "0.5.16+commit.9c3226ce.Emscripten.clang"
  },
  "schemaVersion": "3.4.6",
  "updatedAt": "2022-04-13T12:52:39.908Z",
  "networkType": "ethereum",
  "devdoc": {
    "methods": {}
  },
  "userdoc": {
    "methods": {}
  }
}