{
  "contractName": "SimpleStorage",
  "abi": [
    {
      "inputs": [
        {
          "internalType": "string",
          "name": "_hash",
          "type": "string"
        },
        {
          "internalType": "string",
          "name": "_title",
          "type": "string"
        },
        {
          "internalType": "uint256",
          "name": "_price",
          "type": "uint256"
        }
      ],
      "name": "set",
      "outputs": [],
      "stateMutability": "nonpayable",
      "type": "function"
    },
    {
      "inputs": [],
      "name": "get",
      "outputs": [
        {
          "components": [
            {
              "internalType": "address",
              "name": "uploader",
              "type": "address"
            },
            {
              "internalType": "string",
              "name": "hash",
              "type": "string"
            },
            {
              "internalType": "string",
              "name": "title",
              "type": "string"
            },
            {
              "internalType": "uint256",
              "name": "price",
              "type": "uint256"
            },
            {
              "internalType": "uint256",
              "name": "timestamp",
              "type": "uint256"
            }
          ],
          "internalType": "struct SimpleStorage.Image[]",
          "name": "",
          "type": "tuple[]"
        }
      ],
      "stateMutability": "view",
      "type": "function",
      "constant": true
    },
    {
      "inputs": [],
      "name": "getALL",
      "outputs": [
        {
          "components": [
            {
              "internalType": "address",
              "name": "uploader",
              "type": "address"
            },
            {
              "internalType": "string",
              "name": "hash",
              "type": "string"
            },
            {
              "internalType": "string",
              "name": "title",
              "type": "string"
            },
            {
              "internalType": "uint256",
              "name": "price",
              "type": "uint256"
            },
            {
              "internalType": "uint256",
              "name": "timestamp",
              "type": "uint256"
            }
          ],
          "internalType": "struct SimpleStorage.Image[]",
          "name": "",
          "type": "tuple[]"
        }
      ],
      "stateMutability": "view",
      "type": "function",
      "constant": true
    },
    {
      "inputs": [
        {
          "internalType": "uint256",
          "name": "_id",
          "type": "uint256"
        }
      ],
      "name": "buyImage",
      "outputs": [],
      "stateMutability": "payable",
      "type": "function",
      "payable": true
    },
    {
      "inputs": [],
      "name": "getBoughtImages",
      "outputs": [
        {
          "components": [
            {
              "internalType": "address",
              "name": "uploader",
              "type": "address"
            },
            {
              "internalType": "string",
              "name": "hash",
              "type": "string"
            },
            {
              "internalType": "string",
              "name": "title",
              "type": "string"
            },
            {
              "internalType": "uint256",
              "name": "price",
              "type": "uint256"
            },
            {
              "internalType": "uint256",
              "name": "timestamp",
              "type": "uint256"
            }
          ],
          "internalType": "struct SimpleStorage.Image[]",
          "name": "",
          "type": "tuple[]"
        }
      ],
      "stateMutability": "view",
      "type": "function",
      "constant": true
    }
  ],
  "bytecode": "0x6080604052600060065534801561001557600080fd5b50611281806100256000396000f3fe60806040526004361061004a5760003560e01c806303e6af2e1461004f5780631564d7b31461006b57806347c81699146100965780636d4ce63c146100bf578063c8b71e0b146100ea575b600080fd5b61006960048036038101906100649190610e4a565b610115565b005b34801561007757600080fd5b50610080610328565b60405161008d9190610fd4565b60405180910390f35b3480156100a257600080fd5b506100bd60048036038101906100b89190610dbf565b610552565b005b3480156100cb57600080fd5b506100d46107f3565b6040516100e19190610fd4565b60405180910390f35b3480156100f657600080fd5b506100ff610a1d565b60405161010c9190610fd4565b60405180910390f35b60006007828154811061012b5761012a6111b1565b5b906000526020600020906005020160000160009054906101000a900473ffffffffffffffffffffffffffffffffffffffff169050600060078381548110610175576101746111b1565b5b906000526020600020906005020160030154905080341461019557600080fd5b8173ffffffffffffffffffffffffffffffffffffffff166108fc829081150290604051600060405180830381858888f193505050501580156101db573d6000803e3d6000fd5b50600960003373ffffffffffffffffffffffffffffffffffffffff1673ffffffffffffffffffffffffffffffffffffffff1681526020019081526020016000206007848154811061022f5761022e6111b1565b5b906000526020600020906005020190806001815401808255809150506001900390600052602060002090600502016000909190919091506000820160009054906101000a900473ffffffffffffffffffffffffffffffffffffffff168160000160006101000a81548173ffffffffffffffffffffffffffffffffffffffff021916908373ffffffffffffffffffffffffffffffffffffffff16021790555060018201816001019080546102e19061111f565b6102ec929190610c0a565b5060028201816002019080546103019061111f565b61030c929190610c0a565b5060038201548160030155600482015481600401555050505050565b6060600960003373ffffffffffffffffffffffffffffffffffffffff1673ffffffffffffffffffffffffffffffffffffffff168152602001908152602001600020805480602002602001604051908101604052809291908181526020016000905b8282101561054957838290600052602060002090600502016040518060a00160405290816000820160009054906101000a900473ffffffffffffffffffffffffffffffffffffffff1673ffffffffffffffffffffffffffffffffffffffff1673ffffffffffffffffffffffffffffffffffffffff1681526020016001820180546104129061111f565b80601f016020809104026020016040519081016040528092919081815260200182805461043e9061111f565b801561048b5780601f106104605761010080835404028352916020019161048b565b820191906000526020600020905b81548152906001019060200180831161046e57829003601f168201915b505050505081526020016002820180546104a49061111f565b80601f01602080910402602001604051908101604052809291908181526020018280546104d09061111f565b801561051d5780601f106104f25761010080835404028352916020019161051d565b820191906000526020600020905b81548152906001019060200180831161050057829003601f168201915b505050505081526020016003820154815260200160048201548152505081526020019060010190610389565b50505050905090565b33600160000160006101000a81548173ffffffffffffffffffffffffffffffffffffffff021916908373ffffffffffffffffffffffffffffffffffffffff160217905550826001800190805190602001906105ae929190610c97565b5081600160020190805190602001906105c8929190610c97565b5080600160030181905550426001600401819055506007600190806001815401808255809150506001900390600052602060002090600502016000909190919091506000820160009054906101000a900473ffffffffffffffffffffffffffffffffffffffff168160000160006101000a81548173ffffffffffffffffffffffffffffffffffffffff021916908373ffffffffffffffffffffffffffffffffffffffff16021790555060018201816001019080546106859061111f565b610690929190610c0a565b5060028201816002019080546106a59061111f565b6106b0929190610c0a565b5060038201548160030155600482015481600401555050600860003373ffffffffffffffffffffffffffffffffffffffff1673ffffffffffffffffffffffffffffffffffffffff168152602001908152602001600020600190806001815401808255809150506001900390600052602060002090600502016000909190919091506000820160009054906101000a900473ffffffffffffffffffffffffffffffffffffffff168160000160006101000a81548173ffffffffffffffffffffffffffffffffffffffff021916908373ffffffffffffffffffffffffffffffffffffffff16021790555060018201816001019080546107ac9061111f565b6107b7929190610c0a565b5060028201816002019080546107cc9061111f565b6107d7929190610c0a565b5060038201548160030155600482015481600401555050505050565b6060600860003373ffffffffffffffffffffffffffffffffffffffff1673ffffffffffffffffffffffffffffffffffffffff168152602001908152602001600020805480602002602001604051908101604052809291908181526020016000905b82821015610a1457838290600052602060002090600502016040518060a00160405290816000820160009054906101000a900473ffffffffffffffffffffffffffffffffffffffff1673ffffffffffffffffffffffffffffffffffffffff1673ffffffffffffffffffffffffffffffffffffffff1681526020016001820180546108dd9061111f565b80601f01602080910402602001604051908101604052809291908181526020018280546109099061111f565b80156109565780601f1061092b57610100808354040283529160200191610956565b820191906000526020600020905b81548152906001019060200180831161093957829003601f168201915b5050505050815260200160028201805461096f9061111f565b80601f016020809104026020016040519081016040528092919081815260200182805461099b9061111f565b80156109e85780601f106109bd576101008083540402835291602001916109e8565b820191906000526020600020905b8154815290600101906020018083116109cb57829003601f168201915b505050505081526020016003820154815260200160048201548152505081526020019060010190610854565b50505050905090565b60606007805480602002602001604051908101604052809291908181526020016000905b82821015610c0157838290600052602060002090600502016040518060a00160405290816000820160009054906101000a900473ffffffffffffffffffffffffffffffffffffffff1673ffffffffffffffffffffffffffffffffffffffff1673ffffffffffffffffffffffffffffffffffffffff168152602001600182018054610aca9061111f565b80601f0160208091040260200160405190810160405280929190818152602001828054610af69061111f565b8015610b435780601f10610b1857610100808354040283529160200191610b43565b820191906000526020600020905b815481529060010190602001808311610b2657829003601f168201915b50505050508152602001600282018054610b5c9061111f565b80601f0160208091040260200160405190810160405280929190818152602001828054610b889061111f565b8015610bd55780601f10610baa57610100808354040283529160200191610bd5565b820191906000526020600020905b815481529060010190602001808311610bb857829003601f168201915b505050505081526020016003820154815260200160048201548152505081526020019060010190610a41565b50505050905090565b828054610c169061111f565b90600052602060002090601f016020900481019282610c385760008555610c86565b82601f10610c495780548555610c86565b82800160010185558215610c8657600052602060002091601f016020900482015b82811115610c85578254825591600101919060010190610c6a565b5b509050610c939190610d1d565b5090565b828054610ca39061111f565b90600052602060002090601f016020900481019282610cc55760008555610d0c565b82601f10610cde57805160ff1916838001178555610d0c565b82800160010185558215610d0c579182015b82811115610d0b578251825591602001919060010190610cf0565b5b509050610d199190610d1d565b5090565b5b80821115610d36576000816000905550600101610d1e565b5090565b6000610d4d610d488461101b565b610ff6565b905082815260208101848484011115610d6957610d68611214565b5b610d748482856110dd565b509392505050565b600082601f830112610d9157610d9061120f565b5b8135610da1848260208601610d3a565b91505092915050565b600081359050610db981611234565b92915050565b600080600060608486031215610dd857610dd761121e565b5b600084013567ffffffffffffffff811115610df657610df5611219565b5b610e0286828701610d7c565b935050602084013567ffffffffffffffff811115610e2357610e22611219565b5b610e2f86828701610d7c565b9250506040610e4086828701610daa565b9150509250925092565b600060208284031215610e6057610e5f61121e565b5b6000610e6e84828501610daa565b91505092915050565b6000610e838383610f48565b905092915050565b610e94816110a1565b82525050565b6000610ea58261105c565b610eaf818561107f565b935083602082028501610ec18561104c565b8060005b85811015610efd5784840389528151610ede8582610e77565b9450610ee983611072565b925060208a01995050600181019050610ec5565b50829750879550505050505092915050565b6000610f1a82611067565b610f248185611090565b9350610f348185602086016110ec565b610f3d81611223565b840191505092915050565b600060a083016000830151610f606000860182610e8b565b5060208301518482036020860152610f788282610f0f565b91505060408301518482036040860152610f928282610f0f565b9150506060830151610fa76060860182610fc5565b506080830151610fba6080860182610fc5565b508091505092915050565b610fce816110d3565b82525050565b60006020820190508181036000830152610fee8184610e9a565b905092915050565b6000611000611011565b905061100c8282611151565b919050565b6000604051905090565b600067ffffffffffffffff821115611036576110356111e0565b5b61103f82611223565b9050602081019050919050565b6000819050602082019050919050565b600081519050919050565b600081519050919050565b6000602082019050919050565b600082825260208201905092915050565b600082825260208201905092915050565b60006110ac826110b3565b9050919050565b600073ffffffffffffffffffffffffffffffffffffffff82169050919050565b6000819050919050565b82818337600083830152505050565b60005b8381101561110a5780820151818401526020810190506110ef565b83811115611119576000848401525b50505050565b6000600282049050600182168061113757607f821691505b6020821081141561114b5761114a611182565b5b50919050565b61115a82611223565b810181811067ffffffffffffffff82111715611179576111786111e0565b5b80604052505050565b7f4e487b7100000000000000000000000000000000000000000000000000000000600052602260045260246000fd5b7f4e487b7100000000000000000000000000000000000000000000000000000000600052603260045260246000fd5b7f4e487b7100000000000000000000000000000000000000000000000000000000600052604160045260246000fd5b600080fd5b600080fd5b600080fd5b600080fd5b6000601f19601f8301169050919050565b61123d816110d3565b811461124857600080fd5b5056fea264697066735822122078268e8d565cb653568db17ba13b3d30e5da7d52b54c40565bb1cfd3518416dc64736f6c63430008070033",
  "immutableReferences": {},
  "source": "// SPDX-License-Identifier: MIT\r\npragma solidity >=0.4.21 <8.10.0;\r\n\r\ncontract SimpleStorage {\r\n    uint256 storedData;\r\n    struct Image {\r\n        address uploader;\r\n        string hash;\r\n        string title;\r\n        uint256 price;\r\n        uint256 timestamp;\r\n    }\r\n\r\n    Image upload;\r\n    uint256 key = 0;\r\n    Image[] imageUploads;\r\n    mapping(address => Image[]) Useruploaded;\r\n    mapping(address => Image[]) boughtImages;\r\n\r\n    function set(\r\n        string memory _hash,\r\n        string memory _title,\r\n        uint256 _price\r\n    ) public {\r\n        upload.uploader = msg.sender;\r\n        upload.hash = _hash;\r\n        upload.title = _title;\r\n        upload.price = _price;\r\n        upload.timestamp = block.timestamp;\r\n        imageUploads.push(upload);\r\n        Useruploaded[msg.sender].push(upload);\r\n    }\r\n\r\n    function get() public view returns (Image[] memory) {\r\n        return Useruploaded[msg.sender];\r\n    }\r\n\r\n    function getALL() public view returns (Image[] memory) {\r\n        return imageUploads;\r\n    }\r\n\r\n    function buyImage(uint256 _id) public payable {\r\n        address payable seller = payable(imageUploads[_id].uploader);\r\n        uint256 amount = imageUploads[_id].price;\r\n        require(msg.value == amount);\r\n        seller.transfer(amount);\r\n        boughtImages[msg.sender].push(imageUploads[_id]);\r\n    }\r\n\r\n    function getBoughtImages() public view returns (Image[] memory) {\r\n        return boughtImages[msg.sender];\r\n    }\r\n}\r\n",
  "sourcePath": "C:\\Users\\jobin\\OneDrive\\Documents\\My Project\\vista\\contracts\\SimpleStorage.sol",
  "compiler": {
    "name": "solc",
    "version": "0.8.7+commit.e28d00a7.Emscripten.clang"
  },
  "schemaVersion": "3.4.6",
  "updatedAt": "2022-04-16T12:00:49.829Z",
  "networkType": "ethereum",
  "devdoc": {
    "kind": "dev",
    "methods": {},
    "version": 1
  },
  "userdoc": {
    "kind": "user",
    "methods": {},
    "version": 1
  }
}